{
  "abi": [
    {
      "type": "function",
      "name": "createCampaign",
      "inputs": [
        {
          "name": "_owner",
          "type": "address",
          "internalType": "address"
        },
        {
          "name": "_title",
          "type": "string",
          "internalType": "string"
        },
        {
          "name": "_description",
          "type": "string",
          "internalType": "string"
        },
        {
          "name": "_heroImageCID",
          "type": "string",
          "internalType": "string"
        },
        {
          "name": "_deadline",
          "type": "uint256",
          "internalType": "uint256"
        },
        {
          "name": "_targetInEthWei",
          "type": "uint256",
          "internalType": "uint256"
        }
      ],
      "outputs": [],
      "stateMutability": "nonpayable"
    },
    {
      "type": "function",
      "name": "donateToCampaign",
      "inputs": [
        {
          "name": "_id",
          "type": "uint256",
          "internalType": "uint256"
        }
      ],
      "outputs": [],
      "stateMutability": "payable"
    },
    {
      "type": "function",
      "name": "getAllCampaigns",
      "inputs": [],
      "outputs": [
        {
          "name": "",
          "type": "tuple[]",
          "internalType": "struct CrowdFunding.Campaign[]",
          "components": [
            {
              "name": "owner",
              "type": "address",
              "internalType": "address"
            },
            {
              "name": "deadline",
              "type": "uint256",
              "internalType": "uint256"
            },
            {
              "name": "targetInEthWei",
              "type": "uint256",
              "internalType": "uint256"
            },
            {
              "name": "amountCollectedInEthWei",
              "type": "uint256",
              "internalType": "uint256"
            },
            {
              "name": "title",
              "type": "string",
              "internalType": "string"
            },
            {
              "name": "description",
              "type": "string",
              "internalType": "string"
            },
            {
              "name": "heroImageCID",
              "type": "string",
              "internalType": "string"
            },
            {
              "name": "donations",
              "type": "uint256[]",
              "internalType": "uint256[]"
            },
            {
              "name": "donators",
              "type": "address[]",
              "internalType": "address[]"
            }
          ]
        }
      ],
      "stateMutability": "view"
    },
    {
      "type": "function",
      "name": "getCampaign",
      "inputs": [
        {
          "name": "_id",
          "type": "uint256",
          "internalType": "uint256"
        }
      ],
      "outputs": [
        {
          "name": "",
          "type": "tuple",
          "internalType": "struct CrowdFunding.Campaign",
          "components": [
            {
              "name": "owner",
              "type": "address",
              "internalType": "address"
            },
            {
              "name": "deadline",
              "type": "uint256",
              "internalType": "uint256"
            },
            {
              "name": "targetInEthWei",
              "type": "uint256",
              "internalType": "uint256"
            },
            {
              "name": "amountCollectedInEthWei",
              "type": "uint256",
              "internalType": "uint256"
            },
            {
              "name": "title",
              "type": "string",
              "internalType": "string"
            },
            {
              "name": "description",
              "type": "string",
              "internalType": "string"
            },
            {
              "name": "heroImageCID",
              "type": "string",
              "internalType": "string"
            },
            {
              "name": "donations",
              "type": "uint256[]",
              "internalType": "uint256[]"
            },
            {
              "name": "donators",
              "type": "address[]",
              "internalType": "address[]"
            }
          ]
        }
      ],
      "stateMutability": "view"
    },
    {
      "type": "function",
      "name": "getCampaignsPaginated",
      "inputs": [
        {
          "name": "offset",
          "type": "uint256",
          "internalType": "uint256"
        },
        {
          "name": "limit",
          "type": "uint256",
          "internalType": "uint256"
        }
      ],
      "outputs": [
        {
          "name": "",
          "type": "tuple[]",
          "internalType": "struct CrowdFunding.Campaign[]",
          "components": [
            {
              "name": "owner",
              "type": "address",
              "internalType": "address"
            },
            {
              "name": "deadline",
              "type": "uint256",
              "internalType": "uint256"
            },
            {
              "name": "targetInEthWei",
              "type": "uint256",
              "internalType": "uint256"
            },
            {
              "name": "amountCollectedInEthWei",
              "type": "uint256",
              "internalType": "uint256"
            },
            {
              "name": "title",
              "type": "string",
              "internalType": "string"
            },
            {
              "name": "description",
              "type": "string",
              "internalType": "string"
            },
            {
              "name": "heroImageCID",
              "type": "string",
              "internalType": "string"
            },
            {
              "name": "donations",
              "type": "uint256[]",
              "internalType": "uint256[]"
            },
            {
              "name": "donators",
              "type": "address[]",
              "internalType": "address[]"
            }
          ]
        }
      ],
      "stateMutability": "view"
    },
    {
      "type": "function",
      "name": "getDonatorsAndDonations",
      "inputs": [
        {
          "name": "_id",
          "type": "uint256",
          "internalType": "uint256"
        }
      ],
      "outputs": [
        {
          "name": "",
          "type": "address[]",
          "internalType": "address[]"
        },
        {
          "name": "",
          "type": "uint256[]",
          "internalType": "uint256[]"
        }
      ],
      "stateMutability": "view"
    },
    {
      "type": "function",
      "name": "sIdOfCampaign",
      "inputs": [],
      "outputs": [
        {
          "name": "",
          "type": "uint256",
          "internalType": "uint256"
        }
      ],
      "stateMutability": "view"
    },
    {
      "type": "event",
      "name": "CrowdFundingCreated",
      "inputs": [
        {
          "name": "idOfCampaign",
          "type": "uint256",
          "indexed": true,
          "internalType": "uint256"
        }
      ],
      "anonymous": false
    },
    {
      "type": "error",
      "name": "CrowdFunding__CampaignExceededDeadLine",
      "inputs": []
    },
    {
      "type": "error",
      "name": "CrowdFunding__DeadlineShouldBeInFuture",
      "inputs": []
    },
    {
      "type": "error",
      "name": "CrowdFunding__DescriptionExceeded256Bytes",
      "inputs": []
    },
    {
      "type": "error",
      "name": "CrowdFunding__TitleLengthExceeded64Bytes",
      "inputs": []
    },
    {
      "type": "error",
      "name": "CrowdFunding__TransferFailed",
      "inputs": []
    },
    {
      "type": "error",
      "name": "CrowdFunding__idShouldNotBeGreaterOrEqualToMaxId",
      "inputs": []
    },
    {
      "type": "error",
      "name": "CrowdFunding__offsetOutOfBounds",
      "inputs": []
    }
  ],
  "bytecode": {
    "object": "0x6080604052348015600e575f5ffd5b50611f0e8061001c5f395ff3fe60806040526004361061006f575f3560e01c806386cdf6041161004d57806386cdf604146100f3578063e03def001461011d578063f597c73b14610147578063faed95a8146101835761006f565b806342a4fda8146100735780635598f8cc1461008f5780635a8a637d146100cb575b5f5ffd5b61008d6004803603810190610088919061122e565b6101c0565b005b34801561009a575f5ffd5b506100b560048036038101906100b0919061122e565b61034b565b6040516100c29190611545565b60405180910390f35b3480156100d6575f5ffd5b506100f160048036038101906100ec91906116bb565b610682565b005b3480156100fe575f5ffd5b50610107610795565b6040516101149190611931565b60405180910390f35b348015610128575f5ffd5b50610131610b56565b60405161013e9190611960565b60405180910390f35b348015610152575f5ffd5b5061016d60048036038101906101689190611979565b610b5c565b60405161017a9190611931565b60405180910390f35b34801561018e575f5ffd5b506101a960048036038101906101a4919061122e565b610f83565b6040516101b7929190611a8f565b60405180910390f35b6101c981611093565b5f3490505f5f5f8481526020019081526020015f2090508060080133908060018154018082558091505060019003905f5260205f20015f9091909190916101000a81548173ffffffffffffffffffffffffffffffffffffffff021916908373ffffffffffffffffffffffffffffffffffffffff1602179055508060070182908060018154018082558091505060019003905f5260205f20015f90919091909150555f815f015f9054906101000a900473ffffffffffffffffffffffffffffffffffffffff1673ffffffffffffffffffffffffffffffffffffffff16836040516102b190611af1565b5f6040518083038185875af1925050503d805f81146102eb576040519150601f19603f3d011682016040523d82523d5f602084013e6102f0565b606091505b505090508061032b576040517f9066a63800000000000000000000000000000000000000000000000000000000815260040160405180910390fd5b82826003015f82825461033e9190611b32565b9250508190555050505050565b61035361118c565b61035c82611093565b5f5f8381526020019081526020015f20604051806101200160405290815f82015f9054906101000a900473ffffffffffffffffffffffffffffffffffffffff1673ffffffffffffffffffffffffffffffffffffffff1673ffffffffffffffffffffffffffffffffffffffff1681526020016001820154815260200160028201548152602001600382015481526020016004820180546103fa90611b92565b80601f016020809104026020016040519081016040528092919081815260200182805461042690611b92565b80156104715780601f1061044857610100808354040283529160200191610471565b820191905f5260205f20905b81548152906001019060200180831161045457829003601f168201915b5050505050815260200160058201805461048a90611b92565b80601f01602080910402602001604051908101604052809291908181526020018280546104b690611b92565b80156105015780601f106104d857610100808354040283529160200191610501565b820191905f5260205f20905b8154815290600101906020018083116104e457829003601f168201915b5050505050815260200160068201805461051a90611b92565b80601f016020809104026020016040519081016040528092919081815260200182805461054690611b92565b80156105915780601f1061056857610100808354040283529160200191610591565b820191905f5260205f20905b81548152906001019060200180831161057457829003601f168201915b50505050508152602001600782018054806020026020016040519081016040528092919081815260200182805480156105e757602002820191905f5260205f20905b8154815260200190600101908083116105d3575b505050505081526020016008820180548060200260200160405190810160405280929190818152602001828054801561067257602002820191905f5260205f20905b815f9054906101000a900473ffffffffffffffffffffffffffffffffffffffff1673ffffffffffffffffffffffffffffffffffffffff1681526020019060010190808311610629575b5050505050815250509050919050565b61068b826110d1565b6106948561110d565b61069d8461114c565b5f5f5f60015481526020019081526020015f20905086815f015f6101000a81548173ffffffffffffffffffffffffffffffffffffffff021916908373ffffffffffffffffffffffffffffffffffffffff160217905550858160040190816107049190611d62565b50848160050190816107169190611d62565b50838160060190816107289190611d62565b5082816001018190555081816002018190555060015f81548092919061074d90611e31565b9190505550600180546107609190611e78565b7f0d5119773a55284734ae9238d510385451dcf0268855d09e2663ef71d242d83060405160405180910390a250505050505050565b60605f60015467ffffffffffffffff8111156107b4576107b3611597565b5b6040519080825280602002602001820160405280156107ed57816020015b6107da61118c565b8152602001906001900390816107d25790505b5090505f5f90505b600154811015610b4e575f5f5f8381526020019081526020015f20905080604051806101200160405290815f82015f9054906101000a900473ffffffffffffffffffffffffffffffffffffffff1673ffffffffffffffffffffffffffffffffffffffff1673ffffffffffffffffffffffffffffffffffffffff1681526020016001820154815260200160028201548152602001600382015481526020016004820180546108a190611b92565b80601f01602080910402602001604051908101604052809291908181526020018280546108cd90611b92565b80156109185780601f106108ef57610100808354040283529160200191610918565b820191905f5260205f20905b8154815290600101906020018083116108fb57829003601f168201915b5050505050815260200160058201805461093190611b92565b80601f016020809104026020016040519081016040528092919081815260200182805461095d90611b92565b80156109a85780601f1061097f576101008083540402835291602001916109a8565b820191905f5260205f20905b81548152906001019060200180831161098b57829003601f168201915b505050505081526020016006820180546109c190611b92565b80601f01602080910402602001604051908101604052809291908181526020018280546109ed90611b92565b8015610a385780601f10610a0f57610100808354040283529160200191610a38565b820191905f5260205f20905b815481529060010190602001808311610a1b57829003601f168201915b5050505050815260200160078201805480602002602001604051908101604052809291908181526020018280548015610a8e57602002820191905f5260205f20905b815481526020019060010190808311610a7a575b5050505050815260200160088201805480602002602001604051908101604052809291908181526020018280548015610b1957602002820191905f5260205f20905b815f9054906101000a900473ffffffffffffffffffffffffffffffffffffffff1673ffffffffffffffffffffffffffffffffffffffff1681526020019060010190808311610ad0575b505050505081525050838381518110610b3557610b34611eab565b5b60200260200101819052505080806001019150506107f5565b508091505090565b60015481565b6060600154831115610b9a576040517fdfc90c2c00000000000000000000000000000000000000000000000000000000815260040160405180910390fd5b5f83600154610ba99190611e78565b90505f838210610bb95783610bbb565b815b90505f8167ffffffffffffffff811115610bd857610bd7611597565b5b604051908082528060200260200182016040528015610c1157816020015b610bfe61118c565b815260200190600190039081610bf65790505b5090505f5f90505b82811015610f76575f5f8289610c2f9190611b32565b81526020019081526020015f20604051806101200160405290815f82015f9054906101000a900473ffffffffffffffffffffffffffffffffffffffff1673ffffffffffffffffffffffffffffffffffffffff1673ffffffffffffffffffffffffffffffffffffffff168152602001600182015481526020016002820154815260200160038201548152602001600482018054610cca90611b92565b80601f0160208091040260200160405190810160405280929190818152602001828054610cf690611b92565b8015610d415780601f10610d1857610100808354040283529160200191610d41565b820191905f5260205f20905b815481529060010190602001808311610d2457829003601f168201915b50505050508152602001600582018054610d5a90611b92565b80601f0160208091040260200160405190810160405280929190818152602001828054610d8690611b92565b8015610dd15780601f10610da857610100808354040283529160200191610dd1565b820191905f5260205f20905b815481529060010190602001808311610db457829003601f168201915b50505050508152602001600682018054610dea90611b92565b80601f0160208091040260200160405190810160405280929190818152602001828054610e1690611b92565b8015610e615780601f10610e3857610100808354040283529160200191610e61565b820191905f5260205f20905b815481529060010190602001808311610e4457829003601f168201915b5050505050815260200160078201805480602002602001604051908101604052809291908181526020018280548015610eb757602002820191905f5260205f20905b815481526020019060010190808311610ea3575b5050505050815260200160088201805480602002602001604051908101604052809291908181526020018280548015610f4257602002820191905f5260205f20905b815f9054906101000a900473ffffffffffffffffffffffffffffffffffffffff1673ffffffffffffffffffffffffffffffffffffffff1681526020019060010190808311610ef9575b505050505081525050828281518110610f5e57610f5d611eab565b5b60200260200101819052508080600101915050610c19565b5080935050505092915050565b606080610f8f83611093565b5f5f8481526020019081526020015f206008015f5f8581526020019081526020015f206007018180548060200260200160405190810160405280929190818152602001828054801561103357602002820191905f5260205f20905b815f9054906101000a900473ffffffffffffffffffffffffffffffffffffffff1673ffffffffffffffffffffffffffffffffffffffff1681526020019060010190808311610fea575b505050505091508080548060200260200160405190810160405280929190818152602001828054801561108357602002820191905f5260205f20905b81548152602001906001019080831161106f575b5050505050905091509150915091565b60015481106110ce576040517fa1746fc700000000000000000000000000000000000000000000000000000000815260040160405180910390fd5b50565b42811161110a576040517f784bead200000000000000000000000000000000000000000000000000000000815260040160405180910390fd5b50565b604081511115611149576040517f3e14637300000000000000000000000000000000000000000000000000000000815260040160405180910390fd5b50565b61010081511115611189576040517f5a1dc18200000000000000000000000000000000000000000000000000000000815260040160405180910390fd5b50565b6040518061012001604052805f73ffffffffffffffffffffffffffffffffffffffff1681526020015f81526020015f81526020015f815260200160608152602001606081526020016060815260200160608152602001606081525090565b5f604051905090565b5f5ffd5b5f5ffd5b5f819050919050565b61120d816111fb565b8114611217575f5ffd5b50565b5f8135905061122881611204565b92915050565b5f60208284031215611243576112426111f3565b5b5f6112508482850161121a565b91505092915050565b5f73ffffffffffffffffffffffffffffffffffffffff82169050919050565b5f61128282611259565b9050919050565b61129281611278565b82525050565b6112a1816111fb565b82525050565b5f81519050919050565b5f82825260208201905092915050565b8281835e5f83830152505050565b5f601f19601f8301169050919050565b5f6112e9826112a7565b6112f381856112b1565b93506113038185602086016112c1565b61130c816112cf565b840191505092915050565b5f81519050919050565b5f82825260208201905092915050565b5f819050602082019050919050565b5f61134b8383611298565b60208301905092915050565b5f602082019050919050565b5f61136d82611317565b6113778185611321565b935061138283611331565b805f5b838110156113b25781516113998882611340565b97506113a483611357565b925050600181019050611385565b5085935050505092915050565b5f81519050919050565b5f82825260208201905092915050565b5f819050602082019050919050565b5f6113f38383611289565b60208301905092915050565b5f602082019050919050565b5f611415826113bf565b61141f81856113c9565b935061142a836113d9565b805f5b8381101561145a57815161144188826113e8565b975061144c836113ff565b92505060018101905061142d565b5085935050505092915050565b5f61012083015f83015161147d5f860182611289565b5060208301516114906020860182611298565b5060408301516114a36040860182611298565b5060608301516114b66060860182611298565b50608083015184820360808601526114ce82826112df565b91505060a083015184820360a08601526114e882826112df565b91505060c083015184820360c086015261150282826112df565b91505060e083015184820360e086015261151c8282611363565b915050610100830151848203610100860152611538828261140b565b9150508091505092915050565b5f6020820190508181035f83015261155d8184611467565b905092915050565b61156e81611278565b8114611578575f5ffd5b50565b5f8135905061158981611565565b92915050565b5f5ffd5b5f5ffd5b7f4e487b71000000000000000000000000000000000000000000000000000000005f52604160045260245ffd5b6115cd826112cf565b810181811067ffffffffffffffff821117156115ec576115eb611597565b5b80604052505050565b5f6115fe6111ea565b905061160a82826115c4565b919050565b5f67ffffffffffffffff82111561162957611628611597565b5b611632826112cf565b9050602081019050919050565b828183375f83830152505050565b5f61165f61165a8461160f565b6115f5565b90508281526020810184848401111561167b5761167a611593565b5b61168684828561163f565b509392505050565b5f82601f8301126116a2576116a161158f565b5b81356116b284826020860161164d565b91505092915050565b5f5f5f5f5f5f60c087890312156116d5576116d46111f3565b5b5f6116e289828a0161157b565b965050602087013567ffffffffffffffff811115611703576117026111f7565b5b61170f89828a0161168e565b955050604087013567ffffffffffffffff8111156117305761172f6111f7565b5b61173c89828a0161168e565b945050606087013567ffffffffffffffff81111561175d5761175c6111f7565b5b61176989828a0161168e565b935050608061177a89828a0161121a565b92505060a061178b89828a0161121a565b9150509295509295509295565b5f81519050919050565b5f82825260208201905092915050565b5f819050602082019050919050565b5f61012083015f8301516117d75f860182611289565b5060208301516117ea6020860182611298565b5060408301516117fd6040860182611298565b5060608301516118106060860182611298565b506080830151848203608086015261182882826112df565b91505060a083015184820360a086015261184282826112df565b91505060c083015184820360c086015261185c82826112df565b91505060e083015184820360e08601526118768282611363565b915050610100830151848203610100860152611892828261140b565b9150508091505092915050565b5f6118aa83836117c1565b905092915050565b5f602082019050919050565b5f6118c882611798565b6118d281856117a2565b9350836020820285016118e4856117b2565b805f5b8581101561191f5784840389528151611900858261189f565b945061190b836118b2565b925060208a019950506001810190506118e7565b50829750879550505050505092915050565b5f6020820190508181035f83015261194981846118be565b905092915050565b61195a816111fb565b82525050565b5f6020820190506119735f830184611951565b92915050565b5f5f6040838503121561198f5761198e6111f3565b5b5f61199c8582860161121a565b92505060206119ad8582860161121a565b9150509250929050565b5f82825260208201905092915050565b5f6119d1826113bf565b6119db81856119b7565b93506119e6836113d9565b805f5b83811015611a165781516119fd88826113e8565b9750611a08836113ff565b9250506001810190506119e9565b5085935050505092915050565b5f82825260208201905092915050565b5f611a3d82611317565b611a478185611a23565b9350611a5283611331565b805f5b83811015611a82578151611a698882611340565b9750611a7483611357565b925050600181019050611a55565b5085935050505092915050565b5f6040820190508181035f830152611aa781856119c7565b90508181036020830152611abb8184611a33565b90509392505050565b5f81905092915050565b50565b5f611adc5f83611ac4565b9150611ae782611ace565b5f82019050919050565b5f611afb82611ad1565b9150819050919050565b7f4e487b71000000000000000000000000000000000000000000000000000000005f52601160045260245ffd5b5f611b3c826111fb565b9150611b47836111fb565b9250828201905080821115611b5f57611b5e611b05565b5b92915050565b7f4e487b71000000000000000000000000000000000000000000000000000000005f52602260045260245ffd5b5f6002820490506001821680611ba957607f821691505b602082108103611bbc57611bbb611b65565b5b50919050565b5f819050815f5260205f209050919050565b5f6020601f8301049050919050565b5f82821b905092915050565b5f60088302611c1e7fffffffffffffffffffffffffffffffffffffffffffffffffffffffffffffffff82611be3565b611c288683611be3565b95508019841693508086168417925050509392505050565b5f819050919050565b5f611c63611c5e611c59846111fb565b611c40565b6111fb565b9050919050565b5f819050919050565b611c7c83611c49565b611c90611c8882611c6a565b848454611bef565b825550505050565b5f5f905090565b611ca7611c98565b611cb2818484611c73565b505050565b5b81811015611cd557611cca5f82611c9f565b600181019050611cb8565b5050565b601f821115611d1a57611ceb81611bc2565b611cf484611bd4565b81016020851015611d03578190505b611d17611d0f85611bd4565b830182611cb7565b50505b505050565b5f82821c905092915050565b5f611d3a5f1984600802611d1f565b1980831691505092915050565b5f611d528383611d2b565b9150826002028217905092915050565b611d6b826112a7565b67ffffffffffffffff811115611d8457611d83611597565b5b611d8e8254611b92565b611d99828285611cd9565b5f60209050601f831160018114611dca575f8415611db8578287015190505b611dc28582611d47565b865550611e29565b601f198416611dd886611bc2565b5f5b82811015611dff57848901518255600182019150602085019450602081019050611dda565b86831015611e1c5784890151611e18601f891682611d2b565b8355505b6001600288020188555050505b505050505050565b5f611e3b826111fb565b91507fffffffffffffffffffffffffffffffffffffffffffffffffffffffffffffffff8203611e6d57611e6c611b05565b5b600182019050919050565b5f611e82826111fb565b9150611e8d836111fb565b9250828203905081811115611ea557611ea4611b05565b5b92915050565b7f4e487b71000000000000000000000000000000000000000000000000000000005f52603260045260245ffdfea2646970667358221220440ef8a9729698068ce94a7b920a39c935a084ffe086da5588b11cb1885a139164736f6c634300081e0033",
    "linkReferences": {}
  },
  "methodIdentifiers": {
    "createCampaign(address,string,string,string,uint256,uint256)": "5a8a637d",
    "donateToCampaign(uint256)": "42a4fda8",
    "getAllCampaigns()": "86cdf604",
    "getCampaign(uint256)": "5598f8cc",
    "getCampaignsPaginated(uint256,uint256)": "f597c73b",
    "getDonatorsAndDonations(uint256)": "faed95a8",
    "sIdOfCampaign()": "e03def00"
  },
  "id": 26
}